:020000040800F2
:100000005809002081450008D5190008D7190008B3
:10001000DB190008DF190008E319000800000000E0
:10002000000000000000000000000000E7190008C8
:10003000E919000800000000EB190008ED1900089C
:100040009B4500089B4500089B4500089B45000810
:100050009B4500089B4500089B4500089B45000800
:100060009B4500089B4500089B4500089B450008F0
:100070009B4500089B4500089B4500089B450008E0
:100080009B4500089B4500089B4500089B450008D0
:100090009B4500089B4500089B4500089B450008C0
:1000A0009B450008CB1D00089B4500089B450008A8
:1000B0003B1C0008473B00089B4500089B45000887
:1000C0009B4500089B4500089B4500089B45000890
:1000D0009B450008B53E0008013100089B4500081B
:1000E0009B4500089B4500089B4500089B45000870
:1000F0009B4500089B4500089B4500089B45000860
:100100009B4500089B4500089B4500089B4500084F
:100110009B4500089B4500089B4500089B4500083F
:100120009B4500089B4500089B4500089B4500082F
:1001300000F002F800F05AF80AA090E8000C82449F
:100140008344AAF10107DA4501D100F04FF8AFF27C
:10015000090EBAE80F0013F0010F18BFFB1A43F0A5
:10016000010318474C8000006C8000000A444FF0E7
:10017000000C10F8013B13F0070408BF10F8014B06
:100180001D1108BF10F8015B641E05D010F8016B4B
:10019000641E01F8016BF9D113F0080F1EBF10F8AF
:1001A000014BAD1C0C1B09D16D1E58BF01F801CBD2
:1001B000FAD505E014F8016B01F8016B6D1EF9D555
:1001C0009142D6D37047000000230024002500266A
:1001D000103A28BF78C1FBD8520728BF30C148BFAA
:1001E0000B6070471FB51FBD10B510BD06F0D0F8ED
:1001F0001146FFF7F7FF01F0C0F906F0EEF803B47F
:10020000FFF7F2FF03BC03F0FBFD00002DE9FF5FE9
:100210004FF0000AFD484078000200B2FB4989789F
:1002200040EA010BBAF1000F22D10BF10300C1B279
:10023000F64803F07AFE00B2F5490880F3490BF165
:100240000400095CF14A401E105C41EA002000B243
:10025000F0490880EE48B0F90000B1F9001088427A
:1002600004D10AF1010000F0FF0A01E04FF0000A9A
:10027000BAF1010F0AD1E5480078042804D10AF147
:10028000010000F0FF0A01E04FF0000ABAF1020F8E
:100290007ED1DE484079DD49097940EA012000B28B
:1002A000DD490880B1F9001040F2DC52501A07F025
:1002B00024F88046D94ADA4B06F0AEFD0646D94A04
:1002C000D94B07F081F804460022D84B06F060FEB7
:1002D000D74A03C2D64903C906F0F8FCD54A03C27F
:1002E00000224FF08043D34903C907F06DF804465C
:1002F000D14AD24B07F068F8D14AD24BCDE9000180
:1003000007F062F80646D04AD04B07F091F98046D4
:1003100006F02AFD0022CE4BCDE9020107F07AFA61
:10032000C44A03C200221346C24903C907F04AF96E
:100330001BD80022C74BBF4903C907F009F814D8DE
:10034000BC48D0E90010C44AC2E900101046D0E908
:100350000010C24AC2E90010BF48D0E90010C04AEC
:10036000C2E900100120BF490870A848C079A74918
:10037000897940EA012000B2BB4908800846B0F9FB
:10038000000006F0BAFF0022B84BCDE9020100E000
:100390005EE007F03FFA8046B54AB64B06F03CFDFA
:1003A0000446A04AA04B07F00FF8064600229F4BD8
:1003B00006F0EEFDB04A03C2AF4903C906F086FC61
:1003C000AE4A03C200224FF080439A4903C906F0A7
:1003D000FBFF0446AA4AAB4B06F0F6FF0646AA4AC4
:1003E000AA4B06F0F1FF8046A94AAA4B07F020F974
:1003F000CDE9000106F0B8FC0022A74BCDE90201CF
:1004000007F008FA9D4A03C2002213469B4903C91C
:1004100007F0D8F817D80022A04B984903C906F076
:1004200097FF10D8954903C99D4A03C29C4903C947
:100430009C4A03C29A48D0E900109B4AC2E90010C6
:1004400001209A490870012099490870994908705B
:10045000BDE8FF9F2DE9FC5F02209749087097498E
:100460000870012096490870964908709648974987
:10047000086007209649087003209649087096493D
:1004800008700720954908703C209549086002F0E3
:100490005DF802F042FA03F0A1F81E225B49002049
:1004A00003F032F98F48007806F03EFF04460D460F
:1004B0008648006807F098FA02460B46CDE900012D
:1004C0000020894906F064FD804600224FF08043F9
:1004D00006F07AFF064622462B4606F075FF824656
:1004E00006F0DEFE814908608148007806F01CFFB6
:1004F00006460F46754801687E4807F003FB0190E9
:1005000007F072FA824600224FF0804306F05CFF4B
:10051000804632463B4606F057FF044606F0C0FED2
:1005200075490860714800687449B1FBF0F074497E
:100530000880714800687149B1FBF0F0714908808A
:100540000621714802F075FEFFF760FE40F2BB2104
:1005500040F2775001F019FE40F2BB2140F2775093
:1005600001F052FE0020BDE8FC9F2DE9FC416748E8
:100570000078012847D1664800780028FAD16349FD
:10058000087064480078012808D163480078012881
:1005900004D10821614803F0ADFC09E05D48007812
:1005A00010B15D48007818B908215D4803F0A2FC3D
:1005B00059480078012827D10020574908703B4846
:1005C0000078012808D10020564908603548D0E954
:1005D0000010354AC2E90010324831490CC803C93D
:1005E00007F018F921F0004104464F4A4F4B06F03E
:1005F000E9FF0AD82B482A490CC803C907F00AF9B1
:100600004B4A03C29AE0BCE155E193E0FA010020B5
:1006100064010020660100209801002066BD18CA10
:10062000F925B140F1D4C853FB2109400094D140D1
:10063000A0010020B8010020D0B359F5B9A24C4068
:100640008195438B6C2B5E4091CFAF56D36CD140DC
:1006500000E8554000004340880100204800002089
:100660005800002099000020A801002000407F4091
:10067000C1A8A44E60E4A040B0010020C001002049
:10068000AAF1D24D624C814060764F1E169279409D
:1006900040943F4A2CEB1C4100B46C4000004D409C
:1006A0009001002040000020500000209800002011
:1006B00001000020020000203C0000203D0000203E
:1006C00000000020030000206666E63F7400002062
:1006D0000700002004000020050000200600002084
:1006E0006C00002068000020008076406000002040
:1006F000690000200000B4436400002000A24A0406
:100700009A0000209C0000209E0000207B01002019
:100710007D0100207F01002080010020B200002028
:10072000C2000020F0000020FCA9F1D24D62603F21
:10073000180000200020FE4A10605060FD4AFE4B69
:10074000FB4903C906F040FE0646FC4AFC4B06F096
:100750001FFC044606F074FDFA490860084600686C
:10076000E8B90021F84805F04DF90021F74805F0F7
:1007700049F90220F64908700020F6490860012076
:10078000F54908700020F5490860F548D0E90010E7
:10079000F44AC2E900100020F34908708BE0E948F0
:1007A0000068002840DD0021E74805F02BF9002112
:1007B000E64805F027F9E3480068E6490860EB4899
:1007C000C07820F020002030E849C8700846C07882
:1007D00020F080008030C8700846016800910079E0
:1007E0008DF804000320019A01F036FE0120E04953
:1007F0000860D749087040F2BB22002140F27750D0
:1008000003F022F90020D44908700121CE4805F0F8
:10081000F9F80121D74805F0F5F80020CF49086024
:100820000120D149087046E0C6480068002842DA35
:100830000021C54805F0E6F80021C44805F0E2F8BB
:10084000C0490868002801DB014600E04142C14A76
:100850001160C648C07820F020002030C349C8701D
:100860000846C07820F080008030C87008460168D3
:10087000009100798DF804000320019A01F0ECFD4D
:1008800040F2BB22002140F2775003F0DDF8002057
:10089000B7490860AE490870AF490870AF490860B1
:1008A0000120B14908700121A74805F0ABF80121EA
:1008B000B04805F0A7F8B0480078012861D10020C1
:1008C000AD49087000214FF0804005F09BF8AB481F
:1008D0000078012806D10020A9490860A94903C968
:1008E000A94A03C2A748A9490CC803C906F092FF48
:1008F00021F000410446A64AA64B06F063FE08D844
:10090000A048A2490CC803C906F084FFA24A03C24A
:1009100003E00021A04A11605160A04AA04B9E490B
:1009200003C906F051FD0646844A854B06F030FBAC
:10093000044606F085FC9B4908600846006808BB31
:100940000220994908700021984805F05BF80021C1
:100950004FF0804005F056F84FF0804004F022FC44
:100960000020934908608649086001208349087087
:100970008648D0E90010834AC2E9001000208D4962
:10098000087097E087480068002845DD0021874807
:1009900005F038F800214FF0804005F033F84FF0B3
:1009A000804004F0FFFB7F4800688149086082486E
:1009B000C07820F0200020307F49C8700846C078F9
:1009C00020F080008030C8700846016800910079EE
:1009D0008DF804000320019A01F0B2FC0120644963
:1009E000083908607049087040F2BB22002140F2CB
:1009F000775003F060F80020604908706049086093
:100A000001206C4908700121684804F0FBFF0121B6
:100A1000584804F0F7FF4DE062480068002849DAC2
:100A20000021624804F0EEFF00214FF0804004F006
:100A3000E9FF4FF0804004F0B5FB5A4908680028F0
:100A400001DB014600E04142594A11605A48C07832
:100A500020F0200020305849C8700846C07820F0A7
:100A600080008030C87008460168009100798DF8D8
:100A700004000320019A01F063FC00203C4908397E
:100A8000086040F2BB22002140F2775003F013F8D7
:100A9000002045490870394908703949086001202B
:100AA000444908700121414804F0ACFF012131485C
:100AB00004F0A8FF0020BDE8FC812DE9F04F87B0CD
:100AC0004FF000090024002005900490C0203B490D
:100AD000087082204870002088702A480CC80020C6
:100AE000374906F099F905460E4626480CC80020FD
:100AF000334906F091F92A463346CDE9020106F062
:100B000063FC07462F4A304B06F092FD82462F4A7F
:100B10002F4B06F03DFA2F4A03C22E4903C905F0B8
:100B200097FF00222C4BCDE9000106F04DFC55E06B
:100B300018000020E0EFF7FBFD7ECF406EDBB66DC6
:100B4000DBB64940300000200008004000040040AF
:100B50003C0000202C00002098000020F000002025
:100B60009001002040000020090000200201002028
:100B7000AC012242002C01407F010020990000209E
:100B8000F4000020480000205800002088010020C8
:100B9000FCA9F1D24D62603F10000020ECF57ABD57
:100BA0005EAFD340380000203D000020000C004024
:100BB000340000200A000020070100201802002055
:100BC00000E8554091CFAF56D36CD1406CB7B821F7
:100BD0006AFFCA40880000200094D1408246FE4A45
:100BE000FE4B06F0D5F90746FD4AFE4B06F012FE15
:100BF00005460022FC4B06F01BFDCDE9020106F084
:100C00001FFB00B2F9490880F9480CC80020F949D7
:100C100006F002F905460E46F5480CC80020F549D5
:100C200006F0FAF82A463346CDE9020106F0CCFB7D
:100C30000746F14AF14B06F0FBFC8246F04AF14BC5
:100C400006F0A6F9F04A03C2EF4903C905F000FF18
:100C500082460022ED4B06F0B7FB0746DE4ADF4B2B
:100C600006F096F9EA4AEB4BCDE9020106F0D2FD17
:100C7000054606F0E5FA00B2E7490880E748007843
:100C8000012839D1E6480078012835D10B22E54901
:100C9000002002F04AFD0220E0490870E049087097
:100CA000E148C07820F020002030DF49C8700846B5
:100CB000C07820F08000C870084601680291007971
:100CC0008DF80C000320039A01F0C6FBD748C078CA
:100CD00020F020002030D549C8700846C07820F0A8
:100CE0008000C87008460168029100798DF80C00F8
:100CF0000320039A01F024FBBC480088000ACC4979
:100D00000871BA480078CB49087008460078C8498D
:100D1000487100208871C871BF480088000A0872B5
:100D2000BD480078C449087008460078C049487238
:100D3000C2480088000A8872C0480078C04908701C
:100D400008460078BA49C872BE48006830B9BD4844
:100D5000001D006810B90920087322E0B948006836
:100D600038B9B848001D0068012802D1B04908739D
:100D700017E0B4480068012807D1B248001D006898
:100D800018B90820AA4908730BE0AE48006801288A
:100D900007D1AC48001D0068012802D10020A449F9
:100DA0000873A948006838B9A7481038006818B90E
:100DB00003209F49487322E0A3480068012808D116
:100DC000A14810380068012803D1002098494873D1
:100DD00015E09D480068012807D19B48103800683D
:100DE00018B902209249487309E09748006830B961
:100DF000954810380068012801D18D4948739348FF
:100E0000007820B1012805D0022809D105E0012091
:100E1000059006E00220059003E00020059000E028
:100E200000BF00BF8A48007820B1012805D0022801
:100E300009D105E00120049006E00220049003E0BF
:100E40000020049000E000BF00BFDDE9040100EBDA
:100E50008100774988737F48007810B17E48007818
:100E600060B979480068012808D1774810380068CF
:100E7000012803D102206E49C87333E0744800781A
:100E8000022803D17148007802280CD06E4800680F
:100E9000012808D16C4810380068012803D10320CC
:100EA0006349C8731EE06A480078022810D1674879
:100EB000007802280CD164480068012808D16248F3
:100EC00010380068012803D104205949C87309E08B
:100ED0005D48006818B15C481038006810B90520FA
:100EE0005349C8730C205249C8700F215048401C08
:100EF00003F01BF800B25949088008460088000A30
:100F000057490870084600784949087453480078E2
:100F1000544908700846007845494874C020524931
:100F20000870601CC4B24FF0010927E0404810F877
:100F30000900C02809D1DB204B490855601CC4B208
:100F4000DC200855601CC4B214E0394810F80900D0
:100F5000DB2808D144490855601CC4B2DD2008557F
:100F6000601CC4B206E0324810F809003E4908553A
:100F7000601CC4B209F1010000F0FF09B9F1120FC1
:100F8000D4DBC02038490855601CC1B2364802F095
:100F9000B1FF07B0BDE8F08F2DE9FC5F3348007862
:100FA000012869D1002031490870314800780128B2
:100FB0007ED108212F4802F09DFF1B48C07820F009
:100FC000200020301849C8700846C07820F0800002
:100FD0008030C870084650E0F1D4C853FB21094066
:100FE00066BD18CAF925B140007097402200002064
:100FF0004000002000B46C4040943F4A2CEB1C4160
:10100000EB0A6C844AA51B41800000200094D1406B
:10101000CDCCCCCCCC8BA34020000020980000206D
:1010200099000020DC0100200201002007010020BF
:1010300018020020280000202900002010010020B4
:101040000800002020812142300122423D00002082
:101050003C000020000000200300002024000020AD
:101060002600002027000020360200207901002001
:101070007A010020BA000020D4E0016800910079D4
:101080008DF804000320019A01F0E6F9FE48C078CB
:1010900020F020002030FC49C8700846C07820F0BD
:1010A00080008030C870084601680091007900E037
:1010B00036E08DF804000320019A01F041F9002088
:1010C000F2490870F2490860F2490870F249C1F823
:1010D000AC01F2490870F2490870F2490870F24810
:1010E0000068012807D10121F04804F08BFC0020A2
:1010F000EF49087003E00021EC4804F083FCEA4863
:10110000001D0068012807D10121EA4804F07AFC9B
:101110000020E949087003E00021E64804F072FC71
:10112000E648007801287DD10020E44908700821B4
:10113000E34802F0DFFEDB4800780128F3D1D8480D
:1011400000780128EFD1DF48006800285ADD00212F
:10115000D84804F057FC0120D7490870DA480CC879
:101160000020DA4905F058FE80468946D6480CC86A
:101170000020D64905F050FE824642464B4606F016
:1011800023F90646D24AD34B06F052FA0446D24A15
:10119000D24B05F0FDFED24A03C2D14903C905F086
:1011A00057FC06460022CF4B06F00EF98246CE4A87
:1011B000CE4B05F0EDFE8046CD4ACE4B06F02AFB25
:1011C00004460022CC4B06F033FACC4A03C2CB498A
:1011D00003C906F035F800B2C94908800846B0F9DD
:1011E0000000C8490880B84903C9C74A03C2C748B4
:1011F0000068C74908600120AF4908700220A5496E
:10120000087061E0AF48006800285DDA0021A94855
:1012100004F0F8FB0120A8490870AB480CC8002076
:10122000AA4900E0A6E105F0F7FD06460F46A648EC
:101230000CC80020A54905F0EFFD824632463B462A
:1012400006F0C2F80446A24AA24B06F0F1F9804625
:10125000A14AA24B05F09CFEA14A03C2A04903C9C2
:1012600005F0F6FB064600229E4B06F0ADF88046E0
:101270009D4A9E4B05F08CFE82469D4A9D4B06F092
:10128000C9FA044600229C4B06F0D2F99B4A03C2DD
:101290009A4903C905F0D4FF00B29949088008466D
:1012A000B0F90000974908808748D0E90010964AB5
:1012B000C2E90010954800689549086001207E4900
:1012C00008700220734908709248006800285ADDAF
:1012D0000021764804F096FB0120754908708E487D
:1012E0000CC800208D4905F097FD06460F468A4838
:1012F0000CC80020894905F08FFD804632463B46E8
:1013000006F062F80446864A864B06F091F982465A
:10131000854A864B05F03CFE854A03C2844903C9D1
:1013200005F096FB80460022824B06F04DF80646FB
:101330006D4A6E4B05F02CFE04467F4A7F4B06F04B
:1013400069FA7F4A03C200227E4B7D4903C906F039
:101350003BF8044605F074FF00B27B49088008465C
:10136000B0F90000794908806B4903C9784A03C283
:10137000784800687849086001204D4908700220CB
:10138000464908705FE06348006800285BDA002186
:10139000464804F037FB0120454908705E480CC8F8
:1013A00000205E4905F038FD804689465A480CC841
:1013B00000205A4905F030FD064642464B4606F0ED
:1013C00003F80446564A574B06F032F98246564A0D
:1013D000564B05F0DDFD564A03C2554903C905F0D9
:1013E00037FB06460022534B05F0EEFF80463E4A8F
:1013F0003E4B05F0CDFD04464F4A504B06F00AFA2D
:101400004F4A03C200224F4B4D4903C905F0DCFF90
:10141000044605F015FF00B24B4908800846B0F9B4
:1014200000004A4908803C48D0E90010484AC2E917
:101430000010484800684849086001201C490870AD
:1014400002201649087004204449087000204870A2
:10145000062088700020C8702A480088000A087199
:1014600028480078487139480088000A8871374850
:101470000078C871002008720921384802F055FD33
:1014800000B2374908806DE0070100207A01002092
:10149000A40122423D000020000022423C00002026
:1014A00000000020030000202081214200080040AD
:1014B00098000020000C0040990000207E010020D0
:1014C000BA000020380000204800002000E8554005
:1014D00091CFAF56D36CD1406CB7B8216AFFCA40E8
:1014E000880000200094D140F1D4C853FB2109406A
:1014F000BAF770C9F925B1400070974090000020FC
:10150000980100202200002088010020F400002023
:1015100034000020300000204000002000B46C4067
:1015200040943F4A2CEB1C41EB0A6C844AA51B41BA
:101530008000002000806640E561A1D6349F3540E0
:101540007800002000005940A80100202000002061
:1015500090010020F00000202C000020DC01002081
:101560006401002008460088000AE2494872E24807
:10157000007888720020BDE8FC9F1CB50024A146BD
:1015800002F0D4FB4FF4A06003F09EFD4FF4E13075
:1015900002F044FC4FF4165001F064FD01F002FD2E
:1015A00000F016FD00F08BFD012241F61F410920DD
:1015B00002F0E0F9FEF74EFF9AE1D04800680A28F1
:1015C00006DDCF480078052802DD0120CD490870EE
:1015D000CC480078012845D10020CA4908708146CE
:1015E000C949086035E0C6480078814500DB31E034
:1015F000C64810F80900C02806D1C348006818B9C9
:101600000020C149086022E0C04810F80900C02845
:101610000BD0BE4810F80910BB4802680068401C97
:10162000B94B1860BA48815411E0B84810F8090065
:10163000C0280CD1B4480068022808DDB248007800
:10164000B44908700020AE49087002F056FE09F156
:101650000109C8E700BF1E21AC4804F038FE002095
:10166000A7490870FFF798FCAB480078012806D11D
:101670000020A94908700E21A84802F03BFCA848A8
:101680000078012804D10020A5490870FFF715FA59
:10169000A4480078012806D0022807D0032806D0E5
:1016A00004280CD107E0FEF760FF09E008E0002005
:1016B00002F079F804E0002002F0DCF800E000BF5E
:1016C00000BF99480078012804D10020964908708D
:1016D00001F0CBFD95480068022872D300209349A1
:1016E00008609348006800287BD192480078002861
:1016F00077D10021904804F085F902208D490870C7
:1017000001208E49087000208D49086000218D4A13
:10171000116051608C4A106050608C48007801283C
:1017200016D18B48C07820F0200020308849C8703E
:101730000846C07820F08000C87008460168009113
:1017400000798DF804000320019A00F0F9FD48E0CB
:101750007E480078002844D101207E490860754900
:10176000087000207C4908600021764A11605160B1
:101770007249087001207549087078487849724AA2
:1017800003C20120774908700020774A106050603A
:10179000764A774B6C4903C905F016FE0746754A31
:1017A000754B05F0F5FB054605F04AFD64490860F8
:1017B00008460068714908600020714908800024CB
:1017C00006E048E06F48005D4A490855601CC4B215
:1017D0000C2CF7DB0121584804F014F901206A4968
:1017E00008705348001F0068002834D1674800780B
:1017F00000287DD10021664804F004F901206549E4
:1018000008700020644908600220604908700021C7
:10181000624A116051600020614A10605060614965
:10182000086061480078012816D16048C07820F02F
:10183000200020305D49C8700846C07820F0800044
:10184000C87008460168009100798DF804000320F3
:10185000019A00F001FE4BE053480078002847D180
:101860004C4908700120504908703A490831086015
:101870004649087000204B4908600021474A116022
:10188000516001204A4908704A494B48444AC2E91C
:1018900000100120464908700020484908800021B6
:1018A000474A11605160474A474B3D4903C905F01B
:1018B0008BFD05462F4A304B05F06AFB074605F0C5
:1018C000BFFC35490860002405E02E48005D094949
:1018D0000855601CC4B20C2CF7DB2F4800683B494C
:1018E000086001203A4908700121294804F08AF86B
:1018F00063E60000DC01002064010020700100208C
:1019000074010020760100206C0100208602002076
:10191000C20200207501002077010020A4000020F1
:10192000780100207B0100200E010020EC00002047
:10193000248121423D000020000C0040990000203D
:10194000380000204800002088010020030000200B
:1019500007010020A4012242F4000020D55C6E3073
:10196000D4A92F400200002058000020ECF57ABDD9
:101970005EAFD3406EDBB66DDBB64940340000206D
:1019800098010020CA0000200A0000203C0000202E
:101990000008004098000020300000204000002097
:1019A00090010020F0000020000000200201002033
:1019B000010000209EEFA7C64B173640A80100206B
:1019C00050000020E0EFF7FBFD7ECF402C00002010
:1019D00009000020704700BFFEE700BFFEE700BF20
:1019E000FEE700BFFEE77047704770477047000092
:1019F0000CB50020019000906C48006840F48030E5
:101A00006A49086000BF6948006800F4003000902F
:101A10000198401C0190009818B90198B0F5A06F8A
:101A2000F1D16248006800F4003010B1012000904C
:101A300001E0002000900098012843D15C48006834
:101A400040F010005A4908600846006820F0030082
:101A500008600846006840F002000860534840688B
:101A6000524948600846406848600846406840F46B
:101A7000806048600846406820F47C104860084652
:101A8000406840F4E81048600846006840F0807004
:101A9000086000BF4548006800F000700028F9D0D9
:101AA0004248406820F003004049486008464068CA
:101AB00040F00200486000BF3C48406800F00C0065
:101AC0000828F9D10CBD10B5FFF792FF10BD10B575
:101AD0003648006840F00100344908600846406814
:101AE0003449084031494860084600683249084096
:101AF0002E4908600846006820F4802008600846E7
:101B0000406820F4FE0048604FF41F008860FFF733
:101B1000DAFF4FF000602949086010BD10B50021C0
:101B200000200022214B5B6803F00C0121B1042945
:101B300006D0082928D107E0214B224C236027E05A
:101B40001F4B204C236023E0184B5B6803F470109C
:101B5000164B5B6803F48032022303EB904022B9FA
:101B6000194B4343174C23600DE0104B5B6803F4A3
:101B7000003323B1144B4343124C236003E0104B5A
:101B80004343104C236003E00D4B0E4C236000BF19
:101B900000BF064B5B68C3F303130C4CE15C094BBD
:101BA0001B68CB40074C236010BD000000100240B2
:101BB000002002400000FFF8FFFFF6FE08ED00E005
:101BC00000127A00D800002000093D00DC0000204F
:101BD0007FB505460C460121084603F01AF84FF080
:101BE000804003F0DFFAADF80850ADF80440002063
:101BF000ADF80A00ADF8060001A94FF0804003F0EF
:101C0000A5FB0121880704F0C3F9012211469007C2
:101C100003F013FF1C208DF8000002208DF8010056
:101C20008DF8020001208DF80300684603F051FA98
:101C30000121880703F0E6FE7FBD2DE9F05F012159
:101C4000880704F0A8F900287DD00121880704F056
:101C5000B3F9B5480068401CB3490860B348006850
:101C6000022870D1B2480078E0B9B2480068002874
:101C700018DDB148008805F057FB804642460B4608
:101C80000020AE4905F084F90646AD4AAD4B05F09B
:101C90009BFB0446AC480CC8204605F0BDF8AA4A98
:101CA00003C21EE0A2480078D8B9A2480068002804
:101CB00017DAA148008805F037FB064632460B4686
:101CC00000209E4905F064F904469D4A9D4B05F0AD
:101CD0007BFB80469C480CC8404605F0A9FC9A4A0C
:101CE00003C24FF07E519948006805F0A9FE97495C
:101CF00008600846006805F077FE80460022944B95
:101D000005F046F906460022924B05F085F8044698
:101D10000022914B05F058FB824605F0C1FA864936
:101D2000088001208D49086083480088441E04EB28
:101D3000D4714A1080490988481E002101F0BBFE79
:101D40007948006800E03EE005F0D7FA044600223A
:101D50007F4B05F037FC36D800207349086000211E
:101D60004FF0804003F04EFE00217D4803F04AFE14
:101D700000207A4908606E4908700220794908708D
:101D80007148D0E90010784AC2E900100020774974
:101D900008706648006802280ED100206349086078
:101DA0000120734908707349087040F2BB2200217A
:101DB00040F2775001F07FFE00214FF0804003F0A9
:101DC00021FEBDE8F09F00BFFBE710B56A48008820
:101DD00020F0010068490880684800680F2804D294
:101DE00066480068401C6549086065480068401CFA
:101DF000634908606348007860B963480068002858
:101E000008DD624A624B634903C905F005F8614A7F
:101E100003C20EE05B48007858B95B4800680028B0
:101E200007DA5A4A5A4B5B4903C905F0F3FC594A91
:101E300003C23F48007860B93E480068002808DDCA
:101E4000554A564B404903C904F0E6FF3E4A03C2D7
:101E50000EE03748007858B936480068002807DA9D
:101E60004D4A4E4B384903C905F0D4FC364A03C2EB
:101E70004B480078012828D14A480078012824D10D
:101E80004948006849490968884219D34848007898
:101E9000012815D10021474803F0B4FD012039493C
:101EA0000870002040490860022043490870394802
:101EB000D0E90010414AC2E90010002039490870F9
:101EC00039480068401C384908603D4800780128BE
:101ED00028D126480078012824D13A4800683A4998
:101EE0000968884219D339480078012815D10021A2
:101EF0001B4803F087FD0020324908600220194981
:101F000008701148D0E90010174AC2E900100120FA
:101F1000074908700020154908702A480068401CCD
:101F20002849086010BD0000500100201C0100205D
:101F300099000020380000204601002040776B41C6
:101F4000A60A462575020A3F4800002038010020F5
:101F5000000024400000F03F00E0954024010020F4
:101F6000000C00403D000020580000200A00002026
:101F70007F0100207B010020102C0140EC0000209C
:101F80007001002098000020300000206AC8B9CFFE
:101F90002E206A3F40000020216D61D98BE6643F0E
:101FA0000000002009000020F00000202C0000208C
:101FB00001000020000800403C00002050000020EC
:101FC00003000020F4000020340000200200002064
:101FD00000B587B001211D2002F00EFE0121FE4850
:101FE00002F01FFC0121C80302F013FE4FF4006051
:101FF000ADF8180010208DF81B0006A9F74802F074
:102000003FFB4FF4A050ADF8180048208DF81B009E
:1020100006A9F24802F034FB8020ADF81800102029
:102020008DF81B0006A9EE4802F02AFB8021EC483F
:1020300002F0D5FB3820ADF8180003208DF81A0007
:1020400018208DF81B0006A9E54802F019FB4FF493
:102050000040ADF8180010208DF81B0003208DF80B
:102060001A0006A9DF4802F00BFB4FF40041DD48DF
:1020700002F0B3FB0020ADF804004FF48270ADF81D
:1020800006000020ADF80800ADF80A00ADF80C001D
:102090004FF40070ADF80E002820ADF810000020BD
:1020A000ADF812000720ADF8140001A9CE4803F0E6
:1020B000ADFF0121CC4804F04EF807B000BD00B5DB
:1020C00087B00121082002F097FD0121880302F06A
:1020D000A0FD4FF46040ADF8180018208DF81B00EB
:1020E00003208DF81A0006A9BD4802F0C9FA4FF482
:1020F0008050ADF8180010208DF81B0006A9B848D4
:1021000002F0BEFA4FF48051B54802F066FB4FF47E
:102110000070ADF8180010208DF81B0003208DF81A
:102120001A0006A9AD4802F0ABFA4FF48070ADF882
:10213000180048208DF81B0006A9A84802F0A0FA54
:102140000020ADF804004FF48270ADF806000020C6
:10215000ADF80800ADF80A00ADF80C004FF40070BF
:10216000ADF80E002820ADF810000020ADF81200E8
:102170000720ADF8140001A99C4803F047FF012196
:102180009A4803F0E8FF07B000BD30B589B00546B6
:102190000C460121042002F03CFD0121082002F040
:1021A0002BFD4020ADF8200018208DF823000320DF
:1021B0008DF8220008A98A4802F062FAADF818509A
:1021C0000020ADF81400ADF81A00ADF8160005A90E
:1021D000874803F0BBF86020ADF804000120ADF89B
:1021E0000600ADF80A400020ADF80C0001A98048B7
:1021F00003F0E9F808217E4803F034FD01217C4812
:1022000003F000FD09B030BD30B589B005460C467D
:102210000121052002F0F0FC0121082002F0F9FC68
:102220000120ADF8200018208DF8230003208DF840
:10223000220008A96B4802F023FAADF818500020DC
:10224000ADF81400ADF81A00ADF8160005A96948FC
:1022500003F07CF86020ADF804000120ADF8060022
:10226000ADF80A400020ADF80C0001A9614803F068
:10227000AAF808215F4803F0F5FC01215D4803F04E
:10228000C1FC09B030BD10B586B00446ADF81040B1
:1022900001A9564803F0BAFE0121544803F05BFF40
:1022A00006B010BD70B50546002405E0601CC4B240
:1022B000C82C01DD002070BD02214C4803F0CFFF87
:1022C0000028F3D02946494803F076FF002405E0B2
:1022D000601CC4B2C82C01DD0020ECE7012143489A
:1022E00003F0BDFF0028F3D0404803F067FFC0B201
:1022F000E1E770B50546002405E0601CC4B2C82CB7
:1023000001DD002070BD0221374803F0A8FF00283E
:10231000F3D02946344803F04FFF002405E0601C49
:10232000C4B2C82C01DD0020ECE701212E4803F0E7
:1023300096FF0028F3D02C4803F040FFC0B2E1E73D
:10234000F7B504464CB99DF80400C0F3C300C000C3
:102350009DF80410C90940EAC115012C05D19DF86A
:102360000500410961F35F100546022C16D19DF866
:102370000600C0F3800161F39F009DF80610C1F3D1
:10238000C00140EAC1009DF80610C1F3801140EA87
:1023900081109DF80610C90940EAC115032C15D11A
:1023A0009DF80700C0F3001000019DF80710C1F36D
:1023B000401140EA41109DF80710C1F3801140EA36
:1023C00081109DF80710C90940EAC115092C15D1E3
:1023D0009DF8080010E000000002300000100140ED
:1023E000000C014000080140003C00400038004063
:1023F00000080040000C004000F007050020F749ED
:10240000086044F08000FFF74DFF07462846FFF7BD
:1024100049FF06460A2001F0A2FC0120F049C1F85C
:10242000B0010A2001F09BFC0020EC490860204626
:10243000FFF738FF06460020FFF734FF064601206D
:10244000E749C1F8B0010A2001F089FCAE4201D190
:102450002846FEBD0020FCE7F7B504464CB99DF8C0
:102460000400C0F3C300C0009DF80410C90940EA8D
:10247000C115012C05D19DF80500410961F35F10DC
:102480000546022C16D19DF80600C0F3800161F3C9
:102490009F009DF80610C1F3C00140EAC1009DF8FD
:1024A0000610C1F3801140EA81109DF80610C90999
:1024B00040EAC115032C15D19DF80700C0F30010A8
:1024C00000019DF80710C1F3401140EA41109DF84A
:1024D0000710C1F3801140EA81109DF80710C90967
:1024E00040EAC115092C03D19DF8080000F007054A
:1024F0000020BC4908600A2001F031FC44F0800053
:10250000FFF7F7FE07462846FFF7F3FE06460120D1
:10251000B549C1F8BC010A2001F021FC0020B149F5
:1025200008602046FFF7E5FE06460020FFF7E1FEC3
:1025300006460120AC49C1F8BC01642001F00FFC43
:10254000AE4201D12846FEBD0020FCE71CB50220AA
:10255000012804D002280AD0032818D10FE0A3488C
:10256000407820F01F000D30A049487017E09F48C8
:10257000407820F01F0010309C4948700FE09B48C5
:10258000407820F01F0016309849487007E09748BF
:10259000407820F01F0010309449487000BF00BF01
:1025A0009248407820F0E000904948700846C07892
:1025B00020F020002030C8700846C07820F080004D
:1025C000C8700846807820F003008870084680783C
:1025D00020F00400001D88700846807820F0080074
:1025E000083088700846807820F0400088700846DF
:1025F000807820F0800088707D48007830B1012814
:102600002ED0022856D0032874D17EE00220012863
:1026100004D002280AD0032818D10FE0734840786C
:1026200020F01F00401C7149487017E06F48407847
:1026300020F01F00C01C6D4948700FE06B484078C7
:1026400020F01F0008306949487007E0674840786B
:1026500020F01F00C01C6549487000BF00BF86E025
:102660000220012804D002280AD0032818D10FE044
:102670005E48407820F01F00801D5C49487017E0DC
:102680005A48407820F01F000A30584948700FE03F
:102690005648407820F01F0010305449487007E039
:1026A0005248407820F01F000A305049487000BF5F
:1026B00000BF5CE00220012804D002280AD00328D1
:1026C00019D10FE04948407820F01F000A304749EF
:1026D000487018E04548407820F01F000E3043490C
:1026E000487010E04148407820F01F0013303F4907
:1026F000487008E033E03D48407820F01F000E307D
:102700003A49487000BF00BF31E00220012804D0E0
:1027100002280AD0032818D10FE03448407820F06E
:102720001F000D303149487017E03048407820F0E4
:102730001F0010302D4948700FE02C48407820F0E1
:102740001F0016302949487007E02848407820F0DB
:102750001F0010302549487000BF00BF07E0234824
:10276000407820F01F0010302049487000BF00BFA3
:1027700020480078082870D2DFE800F0040F1F40DE
:102780005060707B1948007920F00700C01C174981
:10279000087101201849087081E01448007920F080
:1027A0000700124908710846407820F0E0008030A8
:1027B000487002201049087071E00C48007920F040
:1027C00007000A4908710846407820F0E0006030B0
:1027D000487004200849087061E00000B08121427F
:1027E00000802142BC012142000021420201002060
:1027F000040000200600002068000020FE48007948
:1028000020F00700FC4908710846407820F0E000FD
:10281000403048700820F949087040E0F6480079D7
:1028200020F00700F44908710846407820F0E000E5
:10283000203048701020F149087030E0EE480079EF
:1028400020F00700EC4908710846407820F0E000CD
:1028500048702020E949087021E015E0E648007939
:1028600020F00700801CE44908714020E34908700B
:1028700015E0E148007920F00700401CDE490871AE
:102880008020DE4908700AE0DB48007920F007006C
:10289000401CD94908718020D849087000BF00BF8A
:1028A000D5480168009100798DF804000020019A54
:1028B000FFF7D2FDD2490870CF4801680091007936
:1028C0008DF804000120019AFFF7C6FDCD4908707C
:1028D000C9480168009100798DF804000220019A2E
:1028E000FFF7BAFDC8490870C34801680091007934
:1028F0008DF804000320019AFFF7AEFDC34908706C
:10290000BD480168009100798DF804000920019A02
:10291000FFF7A2FDBE4908701CBD2DE9FC5F022037
:10292000012804D002280AD0032818D10FE0B948A2
:10293000407820F01F000D30B649487017E0B548C8
:10294000407820F01F001030B24948700FE0B148C5
:10295000407820F01F001630AE49487007E0AD48BF
:10296000407820F01F001030AA49487000BF00BF17
:10297000A848C07820F020002030A649C87008463A
:10298000C07820F08000C8700846807820F00300EE
:1029900088700846807820F00400001D8870084682
:1029A000807820F00800083088700846807820F091
:1029B000400088700846807820F080008870964833
:1029C000007830B101282ED0022856D0032874D1C7
:1029D0007EE00220012804D002280AD0032818D162
:1029E0000FE08C48407820F01F00401C8949487057
:1029F00017E08848407820F01F00C01C85494870C7
:102A00000FE08448407820F01F000830814948706A
:102A100007E08048407820F01F00C01C7D494870C6
:102A200000BF00BF86E00220012804D002280AD09F
:102A3000032818D10FE07748407820F01F00801D50
:102A40007449487017E07348407820F01F000A303E
:102A5000704948700FE06F48407820F01F00103038
:102A60006C49487007E06B48407820F01F000A303E
:102A70006849487000BF00BF5CE00220012804D014
:102A800002280AD0032819D10FE06248407820F0CC
:102A90001F000A305F49487018E05E48407820F017
:102AA0001F000E305B49487010E05A48407820F013
:102AB0001F0013305749487008E033E0554840780C
:102AC00020F01F000E305349487000BF00BF31E0B6
:102AD0000220012804D002280AD0032818D10FE0D0
:102AE0004C48407820F01F000D304A49487017E0EC
:102AF0004848407820F01F001030464948700FE0E9
:102B00004448407820F01F0016304249487007E0E2
:102B10004048407820F01F0010303E49487000BF08
:102B200000BF07E03B48407820F01F0010303949D3
:102B3000487000BF00BF3948007808287CD2DFE821
:102B400000F0043084B5E6FDFCFB3248007920F04B
:102B50000700C01C2F490871012031490870314815
:102B6000006804F0E1FB04460D462F48006804F0BD
:102B70003BFF804642460B4600202C4904F008FAF1
:102B800000222B4BCDE9000104F01EFC0646224634
:102B90002B4604F019FC824604F082FB25490860AC
:102BA0009EE11C48007920F007001A490871084688
:102BB000407820F0E000803048700220184908700A
:102BC0001848006804F0B0FB06460F461648006837
:102BD00004F00AFF02460B46CDE90001002013492C
:102BE00004F0D6F9824600224FF0804304F0ECFB5B
:102BF000804632463B4620E002010020680000206B
:102C0000F8000020F9000020FA000020FB0000205E
:102C1000FC00002007010020050000200700002024
:102C2000690000207000002074000020000018409F
:102C30000000F03F6400002026E104F0C5FB0446DC
:102C400004F02EFBC64908604AE1C648007920F02E
:102C50000700C44908710846407820F0E000603061
:102C600048700420C0490870C048006804F05CFB4C
:102C700004460D46BE48006804F0B6FE8046424653
:102C80000B460020BB4904F083F982460022BA4B70
:102C900004F09AFB064622462B4604F095FBCDE94C
:102CA000000104F0FDFAAE49086019E1AD48007971
:102CB00020F00700AB4908710846407820F0E0009A
:102CC000403048700820A8490870A848006804F0FF
:102CD0002BFB82468B46A648006804F085FE8046A2
:102CE00042460B460020A34904F052F90646002252
:102CF000A24B04F069FB044652465B4604F064FBB9
:102D0000CDE9000104F0CCFA95490860E8E0954867
:102D1000007920F00700934908710846407820F0B8
:102D2000E0002030487010208F4908708F480068FC
:102D300004F0FAFA044602E07AE04DE01CE00D46A9
:102D40008B48006804F050FE804642460B46002047
:102D5000884904F01DF906460022894B04F034FB33
:102D600022462B46CDE9000104F02EFB824604F0FA
:102D700097FA7B490860B3E07A48007920F00700B1
:102D8000784908710846407820F0E000487020201B
:102D9000754908707548006804F0C6FA04460D4687
:102DA0007348006804F020FE064632460B460020B9
:102DB000704904F0EDF882460022724B04F004FBE7
:102DC000804622462B4604F0FFFACDE9000104F0CC
:102DD00067FA6349086083E06248007920F00700E1
:102DE000801C6049087140205F4908705F48006896
:102DF00004F09AFA04460D465D48006804F0F4FDBC
:102E0000824652460B4600205A4904F0C1F88046DB
:102E100000225D4B04F0D8FA064622462B4604F009
:102E2000D3FACDE9000104F03BFA4D49086057E0C0
:102E30004C48007920F00700401C4A490871802066
:102E4000494908704948006804F06EFA04460D4686
:102E50004748006804F0C8FD804642460B46002003
:102E6000444904F095F882460022484B04F0ACFA3D
:102E7000064622462B4604F0A7FACDE9000104F0ED
:102E80000FFA374908602BE03648007920F0070038
:102E9000401C344908718020334908703348006869
:102EA00004F042FA04460D463148006804F09CFDE7
:102EB000824652460B4600202E4904F069F8064629
:102EC0000022324B04F080FA804622462B4604F062
:102ED0007BFACDE9000104F0E3F92149086000BF65
:102EE00000BF20480168009100798DF8040000209F
:102EF000019AFFF725FA264908701A4801680091DF
:102F000000798DF804000120019AFFF719FA214990
:102F1000087014480168009100798DF804000220BF
:102F2000019AFFF70DFA1C4908700E4801680091DC
:102F300000798DF804000320019AFFF701FA174980
:102F4000087008480168009100798DF80400092094
:102F5000019AFFF7F5F912490870BDE8FC9F0000DF
:102F6000640000200701002069000020700000209C
:102F700074000020000018400000104000002040B5
:102F80000000304000004040000050400000604021
:102F9000FD000020FE000020FF00002000010020B6
:102FA0000101002008B501213C2001F025FE41F27D
:102FB0000F10ADF8000048208DF803006946244842
:102FC00001F05EFB0420ADF8000010208DF8030036
:102FD00003208DF8020069461E4801F051FB4FF4B2
:102FE0004070ADF8000048208DF8030069461A488B
:102FF00001F046FB4FF46040ADF8000028208DF84A
:1030000003006946124801F03BFB2020ADF80000A8
:1030100010208DF8030003208DF8020069460C484B
:1030200001F02EFB00200D4908600120ADF80000E2
:1030300010208DF8030003208DF802006946064831
:1030400001F01EFB00200649C1F8800108BD000008
:103050000010014000140140000C01409401224284
:103060000080214210B586B004460121052001F000
:10307000C3FD0121480401F0CCFD0420ADF814008B
:1030800003208DF8160018208DF8170005A9AD480B
:1030900001F0F6FA0820ADF8140048208DF817006A
:1030A00005A9A84801F0ECFA26208DF800000120BF
:1030B0008DF8010000208DF8020001208DF803003A
:1030C000684602F006F801940020ADF80800ADF85B
:1030D0000A00ADF80C00ADF810000C20ADF80E00A1
:1030E00001A9994801F02FFE012240F2255196488E
:1030F00001F0C1FE0121944801F0B1FE06B010BDFF
:1031000010B540F22551904801F09AFF00287DD07B
:1031100040F225518C4801F08AFF8B4801F010FFE6
:103120008A498B4A1278885408460078682809D161
:1031300087480078401C8649087084484078854953
:10314000087002E0002082490870814801788148B7
:103150000078401C81426BDB7E480078002867D0F5
:1031600000207B4908707B480078052812D17748F9
:1031700040787649897808447449C9780844734985
:1031800009790844C0B271494979884202D10120C5
:10319000714908706F480078072818D16B4840784B
:1031A0006A49897808446949C978084467490979AE
:1031B0000844664949790844644989790844C0B299
:1031C0006249C979884202D1012063490870614887
:1031D00000780D282CD15D4840785C4989780844F6
:1031E0005A49C978084459490979084457494979DD
:1031F00008445649897908445449C97908445349CF
:10320000097A08445149497A084400E010E04F49DE
:10321000897A08444D49C97A08444C49097B0844D5
:10322000C0B24A49497B884202D101204A4908700C
:1032300010BD70B505460E4600240CE000BF80218D
:10324000414801F0E7FE0028F9D0295D3E4801F031
:1032500073FE601CC4B2B442F0DB00BF40213A48A8
:1032600001F0D8FE0028F9D070BD3848007900F090
:10327000F00080BB3548007900F00F0042F2107179
:10328000484332490979090940F63542514300EB78
:1032900041102E49497901F00F0101EBC10202EB07
:1032A000011100EB810029494979090901EB41022B
:1032B000C2EBC11100EBC1002449897901F00F0173
:1032C000084422498979090901EB810100EB410099
:1032D00000B2224908801D4800790121B1EB101F7E
:1032E0002DD11A48007900F00F0042F210714843C6
:1032F0001649497901F00F0101EBC10202EB0111FE
:1033000000EB810011494979090901EB4102C2EB47
:10331000C11100EBC1000D49897901F00F0108448A
:103320000A498979090901EB810100EB410000B2EA
:103330000A49088008460088404200B20880002000
:103340007047000000080140004400407202002065
:103350000C0100200D0100200E01002010010020B2
:1033600008B50121082001F047FC4FF44060ADF89A
:10337000000010208DF8030002208DF8020069463D
:10338000F74801F07DF90120F6490860F649C1F8D7
:10339000AC0108BD10B5F248001D006820F4704073
:1033A000EF49091D08600846006840F44050086075
:1033B0000120EC49091D0860EB49C1F8A8010A2069
:1033C00000F0CDFC0020E749091D08600A2000F04C
:1033D000C6FC0020E449C1F8A80110BD10B5E048C2
:1033E000001D006820F47040DD49091D0860084692
:1033F000006840F4405008600020DA490860DA496B
:10340000C1F8AC010A2000F0AAFC0120D5490860EF
:103410000A2000F0A4FC0120D349C1F8AC0110BD82
:1034200010B50024CE48001D006820F47040CC493F
:10343000091D08600846006840F40040086001204B
:10344000C849091D08600A2000F089FC0120C6490E
:10345000C1F8A8010A2000F082FC07E0601CC4B299
:10346000FA2C03DDFFF7BAFF012010BDBD487C3800
:1034700000680028F2D1BB49086000BFF5E710B52D
:103480000020B8490860B648001D006820F470406C
:10349000B349091D08600846006840F440500860C0
:1034A0000020B149C1F8AC010A2000F058FC01200D
:1034B000AC4908600A2000F052FC0020AA49C1F87B
:1034C000A80110BD10B50020A6490860A448001D41
:1034D000006820F47040A249091D08600846006891
:1034E00040F44050086001209F49C1F8AC010A2017
:1034F00000F035FC01209B4908600A2000F02FFCF9
:1035000000209949C1F8A80110BD70B5044694483F
:10351000001D006820F470409149091D08600846AC
:10352000006840F44050086000208E490860002583
:103530001EE0E00920B101208A49091D086003E06E
:1035400000208849091D08606006040E0A2000F06A
:1035500006FC0120834908600A2000F000FC0020DE
:103560008149C1F8A8010A2000F0F9FB681CC5B226
:10357000082DDEDB70BD70B5054600247848001DBF
:10358000006820F470407649091D0860084600680C
:1035900040F400400860002616E0002071490860F1
:1035A0000A2000F0DCFB01206F49C1F8A801600689
:1035B000040E6C487C38006808B1601CC4B20A2054
:1035C00000F0CDFB701CC6B2082EE6DB15B9FFF784
:1035D00079FF01E0FFF753FF204670BD10B5FFF7FC
:1035E000BFFE10BD70B504460026FFF7D3FEA02035
:1035F000FFF78BFFFFF714FF2012FFF786FFFFF79F
:103600000FFF2546E11704EB11610912A4EB01211C
:10361000C8B2FFF77AFFFFF703FFFFF7BBFEA12059
:10362000FFF773FFFFF7FCFE0020FFF7A4FF06463D
:10363000FFF7D4FE304670BD70B504460E46FFF766
:10364000A9FEA020FFF761FFFFF7EAFE2012FFF7B7
:103650005CFFFFF7E5FE2546E11704EB1161091257
:10366000A4EB0121C8B2FFF750FFFFF7D9FE3046A7
:10367000FFF74BFFFFF7D4FEFFF7B0FE072000F087
:1036800092FB70BD2DE9F04105460E461746002419
:1036900009E0E20026FA02F2D1B22A1990B2FFF74D
:1036A000CBFF601CC4B2BC42F3DBBDE8F0812DE966
:1036B000F04107460C460026002509E0360239197C
:1036C000491B491E88B2FFF78DFF0644681CC5B22E
:1036D000A542F3DB3046BDE8F08110B5FF20FFF7CF
:1036E00081FF0446552C01D1002010BD5521FF203B
:1036F000FFF7A2FFFF20FFF775FF0446552C01D10D
:103700000020F2E70120F0E770B506460C461546AA
:1037100008E03046721C96B2FFF764FF04F8010B14
:10372000681E85B2002DF4D170BD70B505460C46FB
:10373000164606E021782846FFF77EFF681C85B212
:10374000641C3000A6F101018EB2F3D170BDF0B55A
:1037500004460E461D4600239DB100210DE00000E9
:10376000000C0140A881214200802142C80026FAB5
:1037700000F004F8010B481CC1B29142F6DB0020B6
:10378000F0BD0026501E0444002105E01B0214F881
:1037900001793B44481CC1B29142F7DB1846EFE780
:1037A0000146012070472DE9FC5F4FF080400190F9
:1037B000019804F019F9804600225F4B03F0E8FB02
:1037C000064600225D4B03F0FFFD044603F0F2FACB
:1037D00000904FF07E505A4908600846006804F097
:1037E00003F980460022544B03F0D2FB0646002228
:1037F000544B03F011FB04460022534B03F0E4FD4D
:10380000824603F04DFD514908800021504802F0E6
:10381000F9F800204F4908604C480088441E04EB2A
:10382000D4714A1049490988481E002100F00CF95A
:10383000009804F0D9F8804600223F4B03F0C4FD05
:10384000064600223F4B03F0E5FF044603F028FD47
:103850001FFA80FA012241F61F41504600F0C0F8DD
:1038600001213D4802F0CEF800203C4908700120BB
:10387000BDE8FC9F2DE9FC5F4FF08040019001986E
:1038800004F0B2F8804600222B4B03F081FB064681
:1038900000222A4B03F098FD044603F08BFA0090B7
:1038A0004FF07E502E4908600846006804F09CF8EE
:1038B00080460022204B03F06BFB06460022214B82
:1038C00003F0AAFA044600221F4B03F07DFD824656
:1038D00003F0E6FC2349088000211D4802F092F81D
:1038E0000020214908601F480088441E04EBD47161
:1038F0004A101C490988481E002100F0DCF81B49C9
:10390000009804F0E1F906464FF07E5104F0A8FA61
:10391000054604F0B9F984B241F61F412046FEF78E
:1039200057F90121124802F06DF800200B49087088
:103930000120BDE8FC9F00000000244000408F40B3
:10394000340100200000F03F00E0954044010020D9
:10395000002C01404C010020000800407B010020A9
:1039600038010020460100205001002000002041C5
:10397000000C00407FB506460C4615460121C802E2
:1039800001F03AF9D14801F00DFCADF80860ADF84E
:1039900004400020ADF80A00ADF806008DF80C00D8
:1039A00001A9CA4801F0D2FC0121C84802F004FB79
:1039B00001221146C54802F040F819208DF8000098
:1039C00002208DF8010001208DF802008DF803001F
:1039D000684601F07EFB2946BC4802F013F87FBD23
:1039E0007FB506460C4615460121022001F011F96B
:1039F000B74801F0D7FBADF80860ADF804400020EF
:103A0000ADF80A00ADF8060001A9B14801F09EFC2E
:103A10000121AF4802F0D0FA01221146AC4802F071
:103A20000CF81D208DF8000002208DF801008DF8A3
:103A3000020001208DF80300684601F04AFB294688
:103A4000A34801F0DFFF7FBD70B588B004460E4685
:103A500015460121042001F0DCF80020ADF81A0021
:103A6000ADF81600ADF81460A0B2ADF8180005A9C5
:103A7000984801F06BFC4FF48070ADF810006020A6
:103A8000ADF804000020ADF80C00ADF808000120EE
:103A9000ADF80600A8B2ADF80A0001A98D4801F002
:103AA00092FC08218B4802F0DDF80121894802F0E0
:103AB000A9F808B070BD70B588B004460E4615462A
:103AC0000121052001F098F80121082001F0A1F85A
:103AD0000120ADF8000018208DF8030003208DF8B8
:103AE000020069467C4800F0CBFD0020ADF81A00CA
:103AF000ADF81600ADF81460A0B2ADF8180005A935
:103B0000764801F023FC4FF48070ADF8100060207F
:103B1000ADF804000020ADF80C00ADF8080001205D
:103B2000ADF80600A8B2ADF80A0001A96B4801F093
:103B30004AFC0821694802F095F80121674802F023
:103B400061F808B070BD2DE9F05F61481030008861
:103B500020F001005E491031088061480068401C77
:103B60005F4908605F48006802287DD15E480078A0
:103B7000E0B95E480068002818DD5D48008803F061
:103B8000D3FB804642460B4600205A4903F000FA18
:103B90000646594A594B03F017FC044658480CC8CE
:103BA000204603F039F9564A03C21EE04E48007819
:103BB000D8B94E480068002817DA4D48008803F04D
:103BC000B3FB064632460B4600204A4903F0E0F9B3
:103BD0000446494A494B03F0F7FB804648480CC865
:103BE000404603F025FD464A03C24FF07E5145484A
:103BF000006803F025FF434908600846006803F0A9
:103C0000F3FE80460022404B03F0C2F90646002234
:103C10003E4B03F001F9044600223D4B03F0D4FB78
:103C2000824603F03DFB3249088001203949086093
:103C30002F480088441E04EBD4714A102C4909888F
:103C4000481E0021FFF700FF2548006803F055FBE0
:103C5000044600222C4B03F0B5FC34D80020204948
:103C6000086000211A4800E02DE001F0CBFE0021A1
:103C7000184801F0C7FE0020264908601A4908705C
:103C80000220254908701E4903C9244A03C20020A6
:103C90002349087040F2BB22002140F27750FFF721
:103CA000D3FE10480068022807D100200D490860A3
:103CB00001201C4908701C4908700021044801F0CB
:103CC000A1FEBDE8F09F00BFFBE70000002C014013
:103CD000000400400008004000080140000C0040C3
:103CE0004C01002018010020980000203000002026
:103CF0004401002040776B41A8C64B378941103FF3
:103D00004000002034010020000024400000F03F6B
:103D100000E09540240100203C00002050000020DD
:103D200009000020800100207B01002010B56FF009
:103D3000040001F018FA2E4800682E49B0FBF1F09B
:103D40002D4908700846007800EB4001C1EBC01017
:103D50004FF6FF7101EAC0002849088010BD0146F6
:103D6000254A12784A434FF0E0235A6100229A61B3
:103D70001A46126942F001021A6100BF4FF0E022B8
:103D8000106900F001021AB100F48032002AF5D067
:103D90004FF0E022126922F001024FF0E0231A6195
:103DA00000229A6170470146144A12884A434FF034
:103DB000E0235A6100229A611A46126942F0010218
:103DC0001A6100BF4FF0E022106900F001021AB141
:103DD00000F48032002AF5D04FF0E022126922F080
:103DE00001024FF0E0231A6100229A61704700003F
:103DF000D800002000127A00580100205A0100204B
:103E000000BF704700BFFE4A128802F04002002A3D
:103E1000F9D0C2B2FA4B1B1D1A80704710B586B09C
:103E20000446012144F2040000F0E6FE4FF4007065
:103E3000ADF8140003208DF8160018208DF8170037
:103E400005A9F04800F01CFC4FF48060ADF81400A8
:103E500004208DF8170005A9EA4800F011FC252080
:103E60008DF8000003208DF801008DF8020001207C
:103E70008DF80300684601F02CF901940020ADF89C
:103E80000800ADF80A00ADF80C00ADF810000C20E9
:103E9000ADF80E0001A9DA4800F055FF012240F20A
:103EA0002551D74800F0E7FF0121D54800F0D7FFA2
:103EB00006B010BD10B540F22551D14801F0C0F850
:103EC000B8B12021CE4801F0A5F8012811D1CC4885
:103ED00001F036F8CC49087008460178CB480278E2
:103EE0000078401CC94B1870C94881540020C9494A
:103EF000086010BD70B505460E46002412E000BFF4
:103F00004021BF4801F086F80128F9D1295DBC485D
:103F100001F012F800BF4021B94801F07BF80128F8
:103F2000F9D1641CB442EAD370BD30B502460B46E9
:103F300000201AE0802115E000F400443CB14FF667
:103F4000FF7404EA400041F22104604003E04FF6B0
:103F5000FF7404EA400014780C4014B141F22104CB
:103F6000604049100029E7D1521C1C00A3F1010553
:103F7000EBB2DFD130BD2DE9FF5F9146002404E0B4
:103F8000A548005DA5490855641C4C45F8DBA449CB
:103F9000B1F9001040F2DC52501A03F0AEF982463B
:103FA000A04AA14B02F038FF0746A04AA04B03F0FD
:103FB0000BFA054600229F4B02F0EAFF9E4A03C21D
:103FC0009D4903C902F082FE9C4A03C200224FF0C1
:103FD00080439A4903C903F0F7F98246984A994BFE
:103FE00003F0F2F90746984A984B03F0EDF90546BD
:103FF000974A984B03F01CFBCDE9000102F0B4FE98
:104000000022954BCDE9020103F004FC8B4A03C268
:1040100000221346894903C903F0D4FA0CD80022C0
:104020008E4B864903C903F093F905D88348D0E93C
:1040300000108B4AC2E9001000218A4A11605160C9
:104040008948B0F9000003F058F9884A884BCDE957
:10405000020102F0E1FE0546864A874B02F0DCFED3
:104060000746724A724B03F0AFF982460022714B49
:1040700002F08EFF7B4A03C27A4903C902F026FE92
:104080007E4A03C200224FF080437C4903C903F0FB
:104090009BF907467A4A7B4B03F096F97A4A7B4BA9
:1040A000CDE9000103F090F90546794A794B03F018
:1040B000BFFA824602F058FE0022774BCDE902019A
:1040C00003F0A8FB6D4A03C2002213466B4903C9E3
:1040D00003F078FA0CD80022704B684903C903F04A
:1040E00037F905D86548D0E900106D4AC2E90010DB
:1040F0006C486B490CC803C903F08CFB05466A4A3F
:104100006A4B03F05FFA17D869480078002836D167
:104110000022684B634903C903F054FA08D2022015
:10412000654908606549087003206549087026E004
:1041300000206249087022E05A4859490CC803C956
:1041400003F068FB0546584A5E4B03F001F916D2AE
:1041500057480078012812D100225B4B514903C90E
:1041600003F0F6F808D2022053490860534908705A
:1041700003205349087002E000205049087053485A
:1041800037490CC803C903F045FB0546464A474B6F
:1041900003F018FA17D84E48007878BB00224D4B30
:1041A0004A4903C903F0D4F809D202204A490870E9
:1041B00004204349087002204849086099E0002023
:1041C0004549087095E0414825490CC803C903F0EA
:1041D00021FB0546344A3B4B03F0BAF80ED23C486B
:1041E000007801280AD10022324B384903C903F074
:1041F000E9F97BD202203949086071E079E075E085
:1042000000380140000801406801002074010020CE
:104210008602002070010020A4020020DC010020A2
:104220009801002066BD18CAF925B140F1D4C853E1
:10423000FB2109400094D140A0010020B8010020DA
:10424000D0B359F5B9A24C408195438B6C2B5E409D
:1042500091CFAF56D36CD14000E8554000004340A9
:1042600088010020B0010020A8010020C1A8A44EB0
:1042700060E4A040FB3A70CE083D7540C0010020CC
:10428000AAF1D24D624C814060764F1E1692794061
:1042900040943F4A2CEB1C4100B46C4000004D4060
:1042A0009001002040000020FCA9F1D24D62603F47
:1042B0003C00002000001440180100208001002074
:1042C0007B0100204D6260BF00804040480000201C
:1042D0003D000020000039407F0100201C0100202B
:1042E0008D49087004208D49087002E000208A4939
:1042F0000870002004B0BDE8F09F70B500260025CE
:10430000002E4DD1002429E08548005DDB280CD12A
:104310008349601C085CDC2807D1601CC4B2C02043
:1043200080494855681CC5B216E07D48005DDB2811
:104330000CD17B49601C085CDD2807D1601CC4B22D
:10434000DB2078494855681CC5B205E07448005D1B
:1043500074494855681CC5B2601CC4B272480078E4
:104360008442D1DBA81EC1B26E48FFF7DEFD00B269
:104370006E490880681E6B49095CA81E694A105C7A
:1043800041EA002000B26A4908806848B0F900009C
:10439000B1F90010884202D1701CC6B200E00026BC
:1043A000012E7DD100265F480078062879D2DFE80B
:1043B00000F09103070B218D01205E4908708AE00F
:1043C00001205D49087086E001205C49087055486D
:1043D000C078012801D15A4908705248C07840B9C4
:1043E0005848006828B95848006810B90120574952
:1043F000087070E056480078012866D1554800786A
:10440000012862D1454908704648C07945498979F3
:1044100040EA012000B2504908804248007A4F49E2
:104420000870404840793F49097940EA012000B2CC
:104430004B4908800846B0F900004A49884209DB28
:104440004748B0F900004942884203DC0120324964
:10445000087002E00020304908703F48B0F90000C1
:1044600010F5967F09DB3C48B0F90000B0F5FA7F03
:1044700003DC01203C49087002E000203A49087042
:1044800025480078012810D13748007801280CD140
:104490002A463148B0F900103148B0F9000001E077
:1044A0001AE017E0FFF767FD0FE01B48007810B136
:1044B0002D48007848B92D48B0F9000026490880F9
:1044C0002B48B0F900002649088004E00120294962
:1044D000087000E000BF00BF70BD70B505460E4615
:1044E00000240CE000BF8021234800F093FD002849
:1044F000F9D0295D204800F01FFD601CC4B2B44211
:10450000F0DB00BF40211C4800F084FD0028F9D0FA
:1045100000201A49086070BD7F0100207B01002047
:10452000C2020020A40200207501002064010020C6
:104530006601002077010020780100207901002029
:104540007A0100201C010020180100207E010020BB
:104550000000002003000020A80100207D010020B1
:104560009801002024FAFFFF800100202000002095
:10457000220000207C0100200038014090012142EF
:104580000948804709480047FEE7FEE7FEE7FEE7E7
:10459000FEE7FEE7FEE7FEE7FEE7FEE70448054923
:1045A000054A064B70470000CF1A00083101000889
:1045B0005803002058090020580500205805002005
:1045C00010B50446CC48844208D10121042000F0F3
:1045D0002DFB0021042000F029FB46E0C74884425F
:1045E00008D10121082000F021FB0021082000F063
:1045F0001DFB3AE0C248844208D10121102000F09E
:1046000015FB0021102000F011FB2EE0BD48844274
:1046100008D10121202000F009FB0021202000F01A
:1046200005FB22E0B848844208D10121402000F077
:10463000FDFA0021402000F0F9FA16E0B348844268
:1046400008D10121802000F0F1FA0021802000F043
:10465000EDFA0AE0AE48844207D10121801500F04E
:10466000E5FA0021A01500F0E1FA10BD10B5012116
:10467000084600F0DBFA0021012000F0D7FA10BD57
:104680002DE9F041024600250026002000230024E9
:10469000002791F803C00CF00F0591F803C00CF04F
:1046A000100CBCF1000F03D091F802C04CEA0505D4
:1046B00091F800C0BCF1000F31D0146800202BE04D
:1046C0004FF0010C0CFA00F3B1F800C00CEA03063D
:1046D0009E4220D183004FF00F0C0CFA03F7BC432D
:1046E00005FA03FC4CEA040491F803C0BCF1280F5E
:1046F00006D14FF0010C0CFA00FCC2F814C00AE01D
:1047000091F803C0BCF1480F05D14FF0010C0CFA31
:1047100000FCC2F810C0401C0828D1D31460B1F8C6
:1047200000C0BCF1FF0F34DD546800202EE000F122
:10473000080C4FF0010808FA0CF3B1F800C00CEABD
:1047400003069E4221D183004FF00F0C0CFA03F7B1
:10475000BC4305FA03FC4CEA040491F803C0BCF125
:10476000280F05D100F1080C08FA0CF8C2F81480E3
:1047700091F803C0BCF1480F07D100F1080C4FF0CD
:10478000010808FA0CF8C2F81080401C0828CED3A3
:104790005460BDE8F0814FF6FF7101800221817005
:1047A0000421C17070470246002093680B400BB192
:1047B000012000E0002070470146886880B2704701
:1047C00002460020D3680B400BB1012000E000201E
:1047D00070470146C86880B2704701617047416107
:1047E00070470AB1016100E041617047C1607047E4
:1047F0004FF480320A4382618161826182698269F9
:10480000704702460020434B18684FF680731840EB
:1048100040EA021008433F4B186070473E49C861A8
:104820007047F0B50A46002300240021002500F05F
:104830000046B6F1004F02D1364EF16901E0354E27
:104840007168C0F3034583B200F44016B6F5401F0B
:1048500008D121F070612F4E766826F070662D4FDA
:104860007E6012E000F48016B6F5801F06D10326A4
:1048700006FA05F4A14341F0706106E0460D3601E9
:1048800003FA06F6B14341F0706122B1460D3601DC
:1048900003FA06F6314300F00046B6F1004F02D1AC
:1048A0001C4EF16101E01B4E7160F0BD30B500227D
:1048B0008B071C0F0F2303FA04F2164B08338C10DE
:1048C00053F824309343134C08348D1044F82530AA
:1048D00023468C1053F824308C07240F00FA04F47C
:1048E00023430C4C08348D1044F8253030BD0A4960
:1048F000DC3108607047000000080140000C0140F6
:10490000001001400014014000180140001C01404B
:10491000002001400000014000002042DF48006804
:1049200040F00100DD49086008464068DC49084065
:10493000DA49486008460068DA490840D749086003
:104940000846006820F4802008600846406820F48B
:10495000FE0048604FF41F0088607047CF49096827
:1049600021F48031CD4A11601146096821F480217B
:104970001160B0F5803F03D0B0F5802F0ED106E076
:10498000C649096841F48031C44A116007E0C3494F
:10499000096841F4A021C14A116000E000BF00BFD6
:1049A000704710B501460022002300204A11012A59
:1049B00002D1BA4C236806E0022A02D1B74C236A1E
:1049C00001E0B64C636A01F01F02012494401C40D0
:1049D0000CB1012000E0002010BD38B5002000908F
:1049E0000024002500BF3120FFF7DBFF05460098BB
:1049F000401C00900098B0F5A06F01D0002DF2D0BF
:104A00003120FFF7CEFF08B1012400E0002420464A
:104A100038BD01460020A14A106820F0F80040EAA5
:104A2000C10010607047A04908607047024600202E
:104A30009A4B586820F47C1042EA01031843974BC4
:104A40005860704798490866704701460020934AAD
:104A5000506820F003000843506070478F4840685A
:104A600000F00C007047014600208C4A506820F08E
:104A7000F00008435060704701460020874A5068A4
:104A800020F4E06008435060704701460020834AEC
:104A9000506820F4605040EAC1005060704729B16E
:104AA0007E4A527A02437D4B5A7204E07B4A527A24
:104AB00082437A4B5A7270477B49D83108607047FD
:104AC00001460020754A506820F440400843506079
:104AD00070470021714A20321170704A82F820100C
:104AE000012802D004280AD104E001216B4A2032B7
:104AF000117005E00521694A2032117000E000BF05
:104B000000BF70476949086070476449096A0143FA
:104B1000624A11627047654944390860704730B590
:104B200000210022002400235C4D6D6805F00C017B
:104B300021B1042905D0082923D105E05C4D056089
:104B400022E05B4D05601FE0544D6D6805F4701266
:104B5000524D6D6805F48034022505EB92421CB974
:104B6000544D554305600BE04C4D6D6805F4003520
:104B70001DB1504D5543056002E04D4D5543056054
:104B800002E04B4D056000BF00BF444D6D6805F06D
:104B9000F0010909484D6B5C0568DD4045603F4DFB
:104BA0006D6805F4E061090A434D6B5C4568DD40C2
:104BB00085603A4D6D6805F46051C90A3E4D6B5CE5
:104BC0004568DD40C560354D6D6805F44041890B91
:104BD0003A4D6B5CC568B5FBF3F5056130BD29B195
:104BE0002E4A526902432D4B5A6104E02B4A526906
:104BF00082432A4B5A61704729B1284A926902437D
:104C0000264B9A6104E0254A92698243234B9A61BC
:104C1000704729B1214AD2690243204BDA6104E08E
:104C20001E4AD26982431D4BDA61704729B11B4A83
:104C3000D2680243194BDA6004E0184AD268824312
:104C4000164BDA60704729B1144A12690243134BBC
:104C50001A6104E0114A12698243104B1A617047CD
:104C600012494039086070470F49C86470470B49C2
:104C7000C87170470948406A40F08070074948622F
:104C8000704701460020054A92680A400AB1012097
:104C900000E0002070470149887270470010024010
:104CA0000000FFF8FFFFF6FE00004242800442428F
:104CB00000127A0000093D00C8010020D801002040
:104CC00010B50446FB48844209D101218803FFF74F
:104CD000ADFF00214FF48040FFF7A8FF32E0F64817
:104CE000844209D101214804FFF7ADFF00214FF4B0
:104CF0000030FFF7A8FF25E0F048844209D10121E8
:104D00008804FFF7A0FF00214FF48020FFF79BFFEE
:104D100018E0EB48844209D10121C804FFF793FF52
:104D200000214FF40020FFF78EFF0BE0E54884429E
:104D300008D101210805FFF786FF00214FF48010FC
:104D4000FFF781FF10BD2DE9F04786B005460E46FE
:104D50000024A24600BFA1460027B08900B100BFD1
:104D60002F462C8A4CF6FF700440F08804432C82B6
:104D7000AC894EF6F3100440B0883189084371893C
:104D800008430443AC81AC8A4FF6FF400440B0892D
:104D90000443AC8201A8FFF7C2FEC648874202D195
:104DA000DDF810A001E0DDF80CA0A88900F40040B7
:104DB00040B10AEBCA0000EB0A1031684900B0FBB1
:104DC000F1F807E00AEBCA0000EB0A10316889002D
:104DD000B0FBF1F86420B8FBF0F004012009642175
:104DE00001FB1089A88900F4004040B1322000EB9B
:104DF000C900B0FBF1F000F00700044308E03220E6
:104E000000EB09106421B0FBF1F000F00F00044347
:104E10002C8106B0BDE8F0874FF4165101600021E7
:104E20008180C18001810C214181002181817047F5
:104E300010B502460020108A4FF2FF0318400B887D
:104E40004C8823438C882343CC8823431843108207
:104E500010BD0021018041808180C180704721B157
:104E6000828942F40052828104E082894DF6FF7308
:104E70001A4082817047F0B50346002400260025C1
:104E8000002040F66A17B94200D100BF1846C1F3AE
:104E9000421401F01F06012707FA06F5012C01D183
:104EA0000C3004E0022C01D1103000E014301AB1B3
:104EB00007682F43076002E00768AF430760F0BD53
:104EC0001AB1838A0B43838202E0838A8B438382F5
:104ED0007047028A4FF6F0731A400282028A0A4330
:104EE0000282704782894FF2FF731A408281828961
:104EF0000A438281704721B1828942F00202828195
:104F000004E082894FF6FD731A4082817047028A5D
:104F10004FF6DF731A400282028A0A430282704708
:104F200021B1028A42F48042028204E0028A4BF6F6
:104F3000FF731A4002827047C1F3080282807047F3
:104F400001468888C0F308007047818941F001015B
:104F500081817047028BD2B20283028B42EA012226
:104F600002837047028B02F47F420283028B0A4362
:104F70000283704721B1828A42F02002828204E0DB
:104F8000828A4FF6DF731A408282704721B1828A8B
:104F900042F01002828204E0828A4FF6EF731A40D8
:104FA0008282704721B1828A42F00802828204E044
:104FB000828A4FF6F7731A408282704721B1828944
:104FC00042F40042828103E08289C2F30E028281B0
:104FD000704721B1828A42F40062828204E0828AB0
:104FE0004FF2FF731A4082827047828A4FF6FB733A
:104FF0001A408282828A0A438282704721B1828A61
:1050000042F00202828204E0828A4FF6FD731A4067
:105010008282704702460020B1F5007F00D100BFB8
:1050200013880B400BB1012000E00020704701F411
:105030000072B2F5007F00D100BFCA430280704702
:1050400070B50246002400230025002040F66A16B1
:10505000B14200D100BFC1F3421501F01F03012688
:1050600006FA03F3012D02D19689334006E0022DA2
:1050700002D1168A334001E0968A33400C12012691
:1050800006FA04F41688344013B10CB1012000E094
:10509000002070BD10B50022002340F66A14A14222
:1050A00000D100BF0A1201249440A3B2DC43048063
:1050B00010BD00000038014000440040004800409E
:1050C000004C00400050004031490143314A11601A
:1050D000704770B5002100230F22C47804B32D4C13
:1050E000246804F4E064C4F5E064210AC1F1040317
:1050F000CA40447804FA03F184781440214309013A
:10510000254C0678A155047804F01F050124AC4015
:1051100005786D11AD0005F1E025C5F8004109E005
:10512000047804F01F050124AC401C4D067876116C
:1051300045F8264070BD1A4A0A400243154B1B1F12
:105140001A60704739B1134A121D12680243114B9D
:105150001B1D1A6006E00F4A121D126882430D4B98
:105160001B1D1A607047042808D14FF0E02109691F
:1051700041F004014FF0E022116107E04FF0E0211F
:10518000096921F004014FF0E0221161704700002D
:105190000000FA050CED00E000E400E080E100E032
:1051A00080FFFF1F10B50446FE48844208D101214C
:1051B000C014FFF73BFD0021E014FFF737FDC4E00A
:1051C000B4F1804F08D101210846FFF73CFD0021D2
:1051D0000120FFF738FDB8E0F348844208D10121EF
:1051E0000220FFF730FD00210220FFF72CFDACE08C
:1051F000EE48844208D101210420FFF724FD00215C
:105200000420FFF720FDA0E0E948844208D10121F5
:105210000820FFF718FD00210820FFF714FD94E097
:10522000E448844208D101211020FFF70CFD002141
:105230001020FFF708FD88E0DF48844208D10121F3
:105240002020FFF700FD00212020FFF7FCFC7CE080
:10525000DA48844208D101214014FFF7E7FC00211D
:105260006014FFF7E3FC70E0D548844209D10121C6
:10527000C804FFF7DBFC00214FF40020FFF7D6FC49
:1052800063E0D048844209D101210805FFF7CEFC34
:1052900000214FF48010FFF7C9FC56E0CA48844251
:1052A00009D101214805FFF7C1FC00214FF400108E
:1052B000FFF7BCFC49E0C548844208D101214020E9
:1052C000FFF7C1FC00214020FFF7BDFC3DE0C048D6
:1052D000844208D101218020FFF7B5FC0021802005
:1052E000FFF7B1FC31E0BB48844208D101218015B1
:1052F000FFF7A9FC0021A015FFF7A5FC25E0B648A3
:10530000844209D101210804FFF790FC00214FF4E9
:105310008030FFF78BFC18E0B048844209D10121AE
:105320004804FFF783FC00214FF40030FFF77EFCB8
:105330000BE0AB48844208D101218804FFF776FCDA
:1053400000214FF48020FFF771FC10BD002202887D
:10535000944B98420ED0994B98420BD0B0F1804FAD
:1053600008D0914B984205D0904B984202D0904B78
:10537000984204D14FF68F731A404B881A438D4BD5
:10538000984207D08C4B984204D04FF6FF431A4006
:10539000CB881A4302808B8883850B880385814BD9
:1053A00098420BD0854B984208D08B4B984205D041
:1053B0008A4B984202D08A4B984201D10B7A0386DD
:1053C00001238382704770B5002400220023058CDE
:1053D0004FF6FE7635400584028C8388048B4FF6A9
:1053E0008F752C40B51E2C400D882C43751E2A400D
:1053F0000D892A434D882A436A4DA8420BD06F4D30
:10540000A84208D0744DA84205D0744DA84202D0DD
:10541000734DA84213D14FF6F7752A404D892A43A0
:105420004FF6FB752A408D882A434FF6FF652B40C7
:105430004FF6FF552B408D892B43CD892B4383801D
:105440000483CD888586028470BD70B50024002257
:105450000023058C4FF6EF7635400584028C838857
:10546000048B48F6FF752C404FF6FF452C400D8805
:105470004FF6FF7606EA05252C434FF6DF752A40E6
:105480000D8906EA05152A434D8806EA05152A43C3
:10549000444DA84202D0494DA8421DD14FF67F7518
:1054A0002A404D894FF6FF7606EA05152A434FF646
:1054B000BF752A408D8806EA05152A434FF6FF3549
:1054C0002B404FF2FF752B408D8906EA85052B4353
:1054D000CD8906EA85052B4383800483CD88058723
:1054E000028470BD70B5002400220023058C4FF6A5
:1054F000FF6635400584028C8388848B4FF68F7558
:105500002C404FF6FC752C400D882C434FF6FF5570
:105510002A400D894FF6FF7606EA05252A434D8875
:1055200006EA05252A431F4DA84202D0234DA84272
:105530001DD14FF2FF752A404D894FF6FF7606EADE
:1055400005252A434FF6FF352A408D8806EA0525B2
:105550002A434EF6FF752B404DF6FF752B408D8983
:1055600006EA05152B43CD8906EA05152B438380F2
:105570008483CD888587028470BD70B500220023A6
:105580000024058C4EF6FF7635400584038C848814
:10559000828B48F6FF752A404FF6FF452A400D885A
:1055A00020E00000002C0140000400400008004002
:1055B000000C004000100040001400400034014086
:1055C000004C0140005001400054014000180040D0
:1055D000001C004000200040004001400044014009
:1055E000004801404FF6FF7606EA05252A434DF6AE
:1055F000FF752B400D8906EA05352B434D8806EAD9
:1056000005352B43FA4DA84202D0FA4DA84208D1E5
:105610004BF6FF752C408D894FF6FF7606EA85150F
:105620002C4384808283CD88A0F84050038470BDD1
:10563000828B4FF2FF331A408283828B4FF6FF73C7
:1056400003EA01231A4382837047F0B50C461546DE
:10565000002200210026078C4EF6FF7C07EA0C078B
:105660000784828B018C4FF6FF7707EA043640F6F9
:10567000FF473A404FF6FF7707EA05273A434FF6D0
:10568000FF7707EA03373A43D94FB8420ED0D94FD4
:10569000B8420BD0B0F1804F08D0D74FB84205D0F8
:1056A000D64FB84202D0D64FB84206D14DF6FF775A
:1056B000394046F48057394305E047F6FF573940F3
:1056C00044F48057394382830184F0BD828B4FF6C6
:1056D000F3731A408283828B0A4382837047F0B54A
:1056E0000C461546002200210026078C4FF6FF6C61
:1056F00007EA0C070784828B018C4FF6FF7707EAD5
:1057000004264FF60C773A404FF6FF7707EA031767
:105710002F433A43B64FB8420ED0B64FB8420BD0E3
:10572000B0F1804F08D0B44FB84205D0B34FB84263
:1057300002D0B34FB84206D14FF6FF57394046F476
:105740008077394305E04FF2FF57394044F48077C2
:10575000394382830184F0BD028B4FF2FF331A403C
:105760000283028B4FF6FF7303EA01231A4302837D
:105770007047F0B50C461546002200210026078C24
:105780004FF6EF7C07EA0C070784028B018C4FF67B
:10579000FF7707EA041640F6FF473A404FF6FF77D7
:1057A00007EA03373A434FF6FF7707EA05273A43FC
:1057B0008F4FB8420ED08F4FB8420BD0B0F1804F10
:1057C00008D08D4FB84205D08C4FB84202D08C4FD4
:1057D000B84206D14FF6DF77394046F0100739431B
:1057E00005E04FF65F77394044F0100739430283F4
:1057F0000184F0BD028B4FF6F3731A400283028BD3
:105800000A4302837047F0B50C461546002200217A
:10581000068C4FF6FE773E400684028B018C4FF6D5
:105820000C7632407E1C06EA03162E433243704E3D
:10583000B0420ED06F4EB0420BD0B0F1804F08D0C6
:105840006D4EB04205D06D4EB04202D06C4EB042AB
:1058500006D14FF6FD76314044F00106314305E0B4
:105860004FF6F576314044F001063143028301845E
:10587000F0BD70B505460C465D4885420ED05D48CA
:1058800085420BD0B5F1804F08D05B48854205D0EA
:105890005A48854202D05A48854200D100E000BFF4
:1058A000208850B92389A28861882846FFF7ABFF7A
:1058B000E1882846FFF79EFF25E0208804280AD1CA
:1058C0002389A28861882846FFF753FFE18828468C
:1058D000FFF742FF17E0208808280AD12389A28811
:1058E00061882846FFF7FBFEE1882846FFF7EEFEB9
:1058F00009E02389A28861882846FFF7A6FEE1888F
:105900002846FFF795FE70BD2DE9F04105460C468F
:1059100000260127608808B9022600E00026A0883A
:10592000012801D1022700E001272088A0B923899E
:10593000A28861882846FFF766FFE1882846FFF7BE
:1059400059FF23893A4631462846FFF712FFE1887E
:105950002846FFF701FF13E02389A28861882846C3
:10596000FFF707FFE1882846FFF7F6FE23893A464E
:1059700031462846FFF747FFE1882846FFF73AFF00
:10598000BDE8F0810A884B881A438B881A43CB887C
:105990001A430B891A434B891A438B891A43A0F87F
:1059A000442070474FF6FF71818000210180C18043
:1059B0004180017270470021018041808180C18057
:1059C000018141818181C181704700210180418035
:1059D000012181800021C180018170470021018067
:1059E00041808180C18001814181818170470000B7
:1059F000002C014000340140000400400008004039
:105A0000000C004021B1028842F00102028004E053
:105A100002884FF6FE731A400280704731B1B0F829
:105A2000442042F40042A0F8442005E0B0F84420AD
:105A3000C2F30E02A0F8442070471AB183890B43C9
:105A4000838102E083898B43838170478182704721
:105A500041EA0203A0F8483070471AB183890B432A
:105A6000838102E083898B438381704701894FF6EC
:105A7000F8721140018170470A46002101894FF6F2
:105A80008F73194011430181704730B504460D46AC
:105A900029462046FFF7F0FF208940F007002081CB
:105AA00030BD2DE9F04104460D4616461F46602DD7
:105AB00006D13B46012231462046FFF75AFE05E05B
:105AC0003B46012231462046FFF79DFE29462046EF
:105AD000FFF7D2FF208940F007002081BDE8F08168
